:020000040800F2
:1000000000000320693300086D2D00087B2D0008D7
:10001000812D0008872D00088D2D000800000000AC
:10002000000000000000000000000000932D000808
:10003000A12D000800000000AF2D0008BD2D000814
:10004000B9330008B9330008B9330008B9330008E0
:10005000B9330008B9330008B9330008B9330008D0
:10006000B9330008B9330008B9330008B9330008C0
:10007000B9330008B9330008B9330008B9330008B0
:10008000B9330008B9330008B9330008B9330008A0
:10009000B9330008B9330008B9330008B933000890
:1000A000B9330008B9330008B9330008B933000880
:1000B000B9330008B9330008B9330008B933000870
:1000C000B9330008B9330008B9330008B933000860
:1000D000B9330008B9330008B9330008B933000850
:1000E000B9330008B9330008B9330008B933000840
:1000F000B9330008B9330008B9330008B933000830
:10010000B9330008B9330008B9330008B93300081F
:10011000B9330008B9330008B9330008B93300080F
:10012000B9330008B9330008B9330008B9330008FF
:10013000B9330008B9330008B9330008B9330008EF
:10014000B9330008B9330008B9330008B9330008DF
:10015000B9330008B9330008B9330008B9330008CF
:10016000B9330008B9330008B9330008B9330008BF
:10017000B9330008B9330008B933000800000000A3
:10018000B9330008B9330008B9330008B93300089F
:10019000B9330008B9330008B9330008B93300088F
:0C01A000B9330008B9330008B933000877
:1001B00010B5054C237833B9044B13B10448AFF3A1
:1001C00000800123237010BD2403002000000000E4
:1001D000ACA4000808B5034B1BB103490348AFF3B7
:1001E000008008BD0000000028030020ACA4000827
:1001F000034613F8012B002AFBD1181A0138704767
:1002000001F0FF01102A2BDB10F0070F08D010F8C7
:10021000013B013A8B422DD010F0070F42B3F6D1CB
:10022000F0B441EA012141EA014122F007047FF0E4
:1002300000070023F0E80256083C85EA010586EA3B
:10024000010685FA47F5A3FA87F586FA47F6A5FA77
:1002500087F68EB9EED1F0BC01F0FF0102F0070283
:1002600032B110F8013B013A83EA010313B1F8D12E
:100270000020704701387047002D06BF354603380F
:10028000073815F0010F07D1013015F4807F02BF48
:10029000013015F4C03F0130F0BC0138704700BF99
:1002A00081F0004102E000BF83F0004330B54FEA27
:1002B00041044FEA430594EA050F08BF90EA020F94
:1002C0001FBF54EA000C55EA020C7FEA645C7FEA27
:1002D000655C00F0E2804FEA5454D4EB5555B8BF4A
:1002E0006D420CDD2C4480EA020281EA030382EABB
:1002F000000083EA010180EA020281EA0303362D4D
:1003000088BF30BD11F0004F4FEA01314FF4801C1F
:100310004CEA113102D0404261EB410113F0004F31
:100320004FEA03334CEA133302D0524263EB4303E8
:1003300094EA050F00F0A780A4F10104D5F1200E86
:100340000DDB02FA0EFC22FA05F2801841F10001E1
:1003500003FA0EF2801843FA05F359410EE0A5F1B5
:1003600020050EF1200E012A03FA0EFC28BF4CF0E6
:10037000020C43FA05F3C01851EBE37101F000459C
:1003800007D54FF0000EDCF1000C7EEB00006EEBA9
:100390000101B1F5801F1BD3B1F5001F0CD3490833
:1003A0005FEA30004FEA3C0C04F101044FEA44528A
:1003B00012F5800F80F09A80BCF1004F08BF5FEA11
:1003C000500C50F1000041EB045141EA050130BDF1
:1003D0005FEA4C0C404141EB010111F4801FA4F194
:1003E0000104E9D191F0000F04BF01460020B1FAE9
:1003F00081F308BF2033A3F10B03B3F120020CDA21
:100400000C3208DD02F1140CC2F10C0201FA0CF0FE
:1004100021FA02F10CE002F11402D8BFC2F1200C63
:1004200001FA02F120FA0CFCDCBF41EA0C01904019
:10043000E41AA2BF01EB0451294330BD6FEA040462
:100440001F3C1CDA0C340EDC04F11404C4F120024D
:1004500020FA04F001FA02F340EA030021FA04F35F
:1004600045EA030130BDC4F10C04C4F1200220FAB6
:1004700002F001FA04F340EA0300294630BD21FAF4
:1004800004F0294630BD94F0000F83F4801306BFBA
:1004900081F480110134013D4EE77FEA645C18BFAE
:1004A0007FEA655C29D094EA050F08BF90EA020F45
:1004B00005D054EA000C04BF1946104630BD91EA3D
:1004C000030F1EBF0021002030BD5FEA545C05D140
:1004D0004000494128BF41F0004130BD14F580047F
:1004E0003CBF01F5801130BD01F0004545F0FE41F3
:1004F00041F470014FF0000030BD7FEA645C1ABF28
:10050000194610467FEA655C1CBF0B46024650EA5E
:10051000013406BF52EA033591EA030F41F400218A
:1005200030BD00BF90F0000F04BF0021704730B510
:100530004FF4806404F132044FF000054FF00001E5
:1005400050E700BF90F0000F04BF0021704730B5A6
:100550004FF4806404F1320410F0004548BF40427B
:100560004FF000013EE700BF42004FEAE2014FEAD0
:1005700031014FEA02701FBF12F07F4393F07F4FAB
:1005800081F06051704732F07F4208BF704793F0AE
:100590007F4F04BF41F40021704730B54FF46074C1
:1005A00001F0004521F000411CE700BF50EA0102C4
:1005B00008BF704730B54FF000050AE050EA01026D
:1005C00008BF704730B511F0004502D5404261EBDD
:1005D00041014FF4806404F132045FEA915C3FF41E
:1005E000D8AE4FF003025FEADC0C18BF03325FEABB
:1005F000DC0C18BF033202EBDC02C2F1200300FA6C
:1006000003FC20FA02F001FA03FE40EA0E0021FA90
:1006100002F11444BDE600BF70B54FF0FF0C4CF47E
:10062000E06C1CEA11541DBF1CEA135594EA0C0F30
:1006300095EA0C0F00F0DEF82C4481EA030621EA6B
:100640004C5123EA4C5350EA013518BF52EA0335A6
:1006500041F4801143F4801338D0A0FB02CE4FF058
:100660000005E1FB02E506F00042E0FB03E54FF088
:100670000006E1FB03569CF0000F18BF4EF0010E80
:10068000A4F1FF04B6F5007F64F5407404D25FEA7C
:100690004E0E6D4146EB060642EAC62141EA55512F
:1006A0004FEAC52040EA5E504FEACE2EB4F1FD0C71
:1006B00088BFBCF5E06F1ED8BEF1004F08BF5FEAEF
:1006C000500E50F1000041EB045170BD06F00046A1
:1006D00046EA010140EA020081EA0301B4EB5C044E
:1006E000C2BFD4EB0C0541EA045170BD41F4801146
:1006F0004FF0000E013C00F3AB8014F1360FDEBF6B
:10070000002001F0004170BDC4F10004203C35DA46
:100710000C341BDC04F11404C4F1200500FA05F3C9
:1007200020FA04F001FA05F240EA020001F000426A
:1007300021F0004110EBD37021FA04F642EB0601E0
:100740005EEA430E08BF20EAD37070BDC4F10C040A
:10075000C4F1200500FA04F320FA05F001FA04F2CE
:1007600040EA020001F0004110EBD37041F10001BA
:100770005EEA430E08BF20EAD37070BDC4F12005C5
:1007800000FA05F24EEA020E20FA04F301FA05F22D
:1007900043EA020321FA04F001F0004121FA04F2D5
:1007A00020EA020000EBD3705EEA430E08BF20EAA5
:1007B000D37070BD94F0000F0FD101F000464000DF
:1007C00041EB010111F4801F08BF013CF7D041EA61
:1007D000060195F0000F18BF704703F00046520065
:1007E00043EB030313F4801F08BF013DF7D043EA36
:1007F0000603704794EA0C0F0CEA135518BF95EAEC
:100800000C0F0CD050EA410618BF52EA4306D1D172
:1008100081EA030101F000414FF0000070BD50EA91
:10082000410606BF1046194652EA430619D094EA1B
:100830000C0F02D150EA013613D195EA0C0F05D105
:1008400052EA03361CBF104619460AD181EA030159
:1008500001F0004141F0FE4141F470014FF0000011
:1008600070BD41F0FE4141F4780170BD70B54FF0AC
:10087000FF0C4CF4E06C1CEA11541DBF1CEA13552C
:1008800094EA0C0F95EA0C0F00F0A7F8A4EB05040E
:1008900081EA030E52EA03354FEA013100F0888005
:1008A0004FEA03334FF0805545EA131343EA1263CE
:1008B0004FEA022245EA111545EA10654FEA002683
:1008C0000EF000419D4208BF964244F1FD0404F53C
:1008D000407402D25B084FEA3202B61A65EB030598
:1008E0005B084FEA32024FF480104FF4002CB6EB55
:1008F000020E75EB030E22BFB61A754640EA0C00D5
:100900005B084FEA3202B6EB020E75EB030E22BF14
:10091000B61A754640EA5C005B084FEA3202B6EB55
:10092000020E75EB030E22BFB61A754640EA9C0014
:100930005B084FEA3202B6EB020E75EB030E22BFE4
:10094000B61A754640EADC0055EA060E18D04FEAA2
:10095000051545EA16754FEA06164FEAC30343EA42
:1009600052734FEAC2025FEA1C1CC0D111F4801F0F
:100970000BD141EA00014FF000004FF0004CB6E708
:1009800011F4801F04BF01430020B4F1FD0C88BFA7
:10099000BCF5E06F3FF6AFAEB5EB030C04BFB6EBB2
:1009A000020C5FEA500C50F1000041EB045170BDA5
:1009B0000EF0004E4EEA113114EB5C04C2BFD4EBD2
:1009C0000C0541EA045170BD41F480114FF0000E56
:1009D000013C90E645EA060E8DE60CEA135594EAD2
:1009E0000C0F08BF95EA0C0F3FF43BAF94EA0C0FD5
:1009F0000AD150EA01347FF434AF95EA0C0F7FF44A
:100A000025AF104619462CE795EA0C0F06D152EA9D
:100A100003353FF4FDAE1046194622E750EA410681
:100A200018BF52EA43067FF4C5AE50EA41047FF492
:100A30000DAF52EA43057FF4EBAE12E74FF0FF3CF7
:100A400006E000BF4FF0010C02E000BF4FF0010CC8
:100A50004DF804CD4FEA410C7FEA6C5C4FEA430C41
:100A600018BF7FEA6C5C1BD001B050EA410C0CBF90
:100A700052EA430C91EA030F02BF90EA020F0020F2
:100A8000704710F1000F91EA030F58BF994208BF59
:100A900090422CBFD8176FEAE37040F00100704716
:100AA0004FEA410C7FEA6C5C02D150EA013C07D16D
:100AB0004FEA430C7FEA6C5CD6D152EA033CD3D0B8
:100AC0005DF8040B704700BF8446104662468C46B2
:100AD0001946634600E000BF01B5FFF7B7FF0028E5
:100AE00048BF10F1000F01BD4DF808EDFFF7F4FF0E
:100AF0000CBF012000205DF808FB00BF4DF808ED99
:100B0000FFF7EAFF34BF012000205DF808FB00BFBB
:100B10004DF808EDFFF7E0FF94BF012000205DF8DD
:100B200008FB00BF4DF808EDFFF7CEFF94BF012092
:100B300000205DF808FB00BF4DF808EDFFF7C4FF8B
:100B400034BF012000205DF808FB00BF4FEA410CD4
:100B50007FEA6C5C02D150EA013C0AD14FEA430CB7
:100B60007FEA6C5C02D152EA033C02D14FF00000F4
:100B700070474FF0010070474FEA410212F5001232
:100B800015D211D56FF47873B3EB625212D94FEAD4
:100B9000C12343F0004343EA505311F0004F23FABE
:100BA00002F018BF404270474FF00000704750EA13
:100BB000013005D111F0004008BF6FF000407047D0
:100BC0004FF00000704700BF4A0011D212F500122A
:100BD00011D20DD56FF47873B3EB62520ED44FEA95
:100BE000C12343F0004343EA505323FA02F0704715
:100BF0004FF00000704750EA013002D14FF0FF3053
:100C000070474FF0000070474FEA4102B2F1E043F5
:100C100024BFB3F5001CDCF1FE5C0DD901F0004CE3
:100C20004FEAC0024CEA5070B2F1004F40EB830033
:100C300008BF20F00100704711F0804F21D113F15F
:100C40003872BCBF01F00040704741F480114FEA98
:100C50005252C2F11802C2F1200C10FA0CF320FA21
:100C600002F018BF40F001004FEAC1234FEAD3233E
:100C700003FA0CFC40EA0C0023FA02F34FEA4303A8
:100C8000CCE77FEA625307D150EA01331EBF4FF031
:100C9000FE4040F44000704701F0004040F0FE404C
:100CA00040F40000704700BF53B94AB9002908BF9B
:100CB00000281CBF4FF0FF314FF0FF3000F072B939
:100CC000ADF1080C6DE904CE00F006F8DDF804E0A3
:100CD000DDE9022304B070472DE9F047089E044681
:100CE0008846002B4BD18A42154667D9B2FA82F268
:100CF0004AB1C2F1200701FA02F320FA07F7954042
:100D000047EA030894404FEA154E230CB8FBFEF760
:100D10001FFA85FC0EFB178843EA084307FB0CF11A
:100D2000994209D9EB1807F1FF3080F01B819942F5
:100D300040F21881023F2B445B1AA4B2B3FBFEF0D1
:100D40000EFB103344EA034400FB0CFCA44509D914
:100D50002C1900F1FF3380F00781A44540F2048193
:100D600002382C4440EA0740A4EB0C0400271EB1D3
:100D7000D4400023C6E900433946BDE8F0878B42E2
:100D800009D9002E00F0EB800027C6E900013846A3
:100D90003946BDE8F087B3FA83F7002F47D18B427D
:100DA00002D3824200F2FA80841A61EB030301202D
:100DB0009846002EE0D0C6E90048DDE702B9FFDE24
:100DC000B2FA82F2002A40F08F80491B4FEA154E9A
:100DD0001FFA85F80127B1FBFEFC230C0EFB1C114A
:100DE00043EA014308FB0CF1994207D9EB180CF1D7
:100DF000FF3002D2994200F2CD808446591AA3B244
:100E0000B1FBFEF00EFB101443EA044408FB00F8AB
:100E1000A04507D92C1900F1FF3302D2A04500F2FA
:100E2000B6801846A4EB080440EA0C409FE7C7F1DF
:100E3000200CBB4022FA0CFE4EEA030E01FA07F426
:100E400020FA0CF521FA0CF34FEA1E482543B3FBB8
:100E5000F8F92C0C08FB19331FFA8EFA44EA034305
:100E600009FB0AF49C4202FA07F200FA07F10BD9D7
:100E70001EEB030309F1FF3080F087809C4240F2B3
:100E80008480A9F1020973441B1BADB2B3FBF8F0D7
:100E900008FB103345EA034400FB0AFAA24508D9CF
:100EA0001EEB040400F1FF336BD2A24569D902386E
:100EB000744440EA0940A0FB0289A4EB0A044C45B3
:100EC000C2464B4654D351D0002E69D0B1EB0A052F
:100ED00064EB030404FA0CFCFD40FC404CEA0505FD
:100EE000C6E90054002747E7C2F1200320FA03F7C0
:100EF000954001FA02F021FA03F34FEA154E384308
:100F0000010CB3FBFEF71FFA85F80EFB173341EA1D
:100F1000034107FB08F38B4204FA02F407D969186E
:100F200007F1FF3C2FD28B422DD9023F2944CB1A27
:100F300081B2B3FBFEF00EFB103341EA034100FB2C
:100F400008F38B4207D9691800F1FF3C17D28B4296
:100F500015D902382944C91A40EA07473BE7374602
:100F6000304609E70746E7E61846FBE64145ABD2BF
:100F7000B8EB020A69EB0E0201381346A4E760469B
:100F8000E9E7184695E76746D1E781467CE70238EE
:100F90002C4447E7ACF1020C2B442FE7384608E716
:100FA0003746E9E6704700BF90B583B000AF002137
:100FB000A34802F068FFA34802F0D8FAA14802F063
:100FC0001FFC0246A04B1A609F4B1B681846FFF798
:100FD000A9FA8BA3D3E90023FFF71EFB03460C46B7
:100FE00018462146FFF710FE0246984B1A60974BB1
:100FF0001B681846FFF7B8FA03460C461A46234604
:1010000081A1D1E90001FFF74FF903460C461846CC
:1010100021467FA3D3E90023FFF7FEFA03460C46DF
:10102000184621467CA3D3E90023FFF73FF9034686
:101030000C4644EC173BB0EE470AF0EE670A09F0A5
:1010400029F954EC103B1A46234675A1D1E9000159
:10105000FFF72AF903460C461846214672A3D3E946
:101060000023FFF703FC03460C46184621464FF0C9
:101070000002774BFFF71AF903460C461846214643
:10108000FFF7C2FD0246734B1A60724BD3ED007A34
:10109000FCEEE77A17EE902A6F4B1A600A2002F0F6
:1010A000FFF96E4802F062FA01216C4802F024FB5D
:1010B0000346002B3DD1694802F0A2FB07EE900ADF
:1010C000F8EE677A664BC3ED007A654B1B681846ED
:1010D000FFF74AFA56A3D3E90023FFF79DFA034628
:1010E0000C461846214654A3D3E90023FFF794FA8F
:1010F00003460C4618462146FFF786FD0246594B2B
:101100001A60584BD3ED006A574BD3ED007A9FED30
:10111000576A87EE867AC6EE877A554BC3ED007A1A
:10112000534BD3ED007AFCEEE77A17EE902A514B41
:101130001A600A2002F0B4F901214F4803F026F9A1
:101140000346002B37D002F09FF978602CE002F0C4
:101150009BF902467B68D31AB3F5967F10D902F04B
:1011600093F97860404BD3ED007AB2EE047A77EED3
:10117000877A3D4BC3ED007A052002F091F91AE021
:1011800002F082F902467B68D31A142B0CD9364B35
:10119000D3ED007AB7EE007A77EE877A324BC3ED63
:1011A000007A642002F07CF90121334803F0EEF864
:1011B0000346002BCBD10221304803F0E7F8034669
:1011C000002B78D002F060F938606DE002F05CF935
:1011D00002463B68D31AB3F5967F51D902F054F911
:1011E0003860214BD3ED007AB2EE047A77EEC77AFD
:1011F0001D4BC3ED007A052002F052F95BE000BF01
:10120000986E1283C0CAE93F9A999999996DA14045
:101210003F52448655BC913F282EC72B100F674084
:10122000448B6CE7FB292B403F52448655BC81BF61
:101230004C48F346F2E4493F0F37025100E72E4095
:1012400020080020900700204808002040080020C7
:1012500000003E408407002080070020D8070020BF
:1012600044080020880700208C07002000007A44F2
:10127000380800203C08002000040240000802401A
:1012800002F002F902463B68D31A142B0CD9554BD5
:10129000D3ED007AB7EE007A77EEC77A514BC3ED03
:1012A000007A642002F0FCF802214F4803F06EF847
:1012B0000346002B8AD14B4BD3ED007AB3EE047A70
:1012C00067EE877A494BC3ED007A484B93ED007A7D
:1012D000DFED476AC7EE267A464BC3ED007A454BF1
:1012E000D3ED007AFCEEE77A17EE903A0022002167
:1012F000414802F07BFE3B4BD3ED007AFCEEE77AEF
:1013000017EE902A3D4B1A60364BD3ED007A9FEDD5
:101310003C7AF4EEC77AF1EE10FA02DD314B394A2D
:101320001A60344BD3ED007A9FED377AF4EEC77A2A
:10133000F1EE10FA02DD2F4B344A1A60294BD3ED3F
:10134000007AF5EEC07AF1EE10FA03D5254B4FF096
:1013500000021A600121012001F09EF92C4B1B684C
:101360001A462C492C4806F0A1F801222B492A489C
:1013700001F028FA0121692001F08EF901222749A4
:10138000274801F01FFA274B1B681A4626492748B1
:1013900006F08CF81321012001F07EF901221F498B
:1013A000224801F00FFA154B1B681A4620492148C4
:1013B00006F07CF82521012001F06EF901221E497A
:1013C0001C4801F0FFF92521572001F065F90122A1
:1013D00019491A4801F0F6F901F0B8F800BF0C37C6
:1013E000BD4690BD8C070020000802404403002049
:1013F00000404E3F40030020200800207C070020D2
:101400000000C8420000C84200F07F4500F07F4560
:101410003C080020C8A40008400000206000002014
:10142000E0A4000880070020E4A4000820000020B9
:1014300000A50008000000207000002010A5000892
:1014400080B586B002AF0346FB71FB7923F00F0332
:10145000FB73FB791B01BB73FB7B43F00C03DBB21B
:101460003B72FB7B43F00803DBB27B72BB7B43F038
:101470000C03DBB2BB72BB7B43F00803DBB2FB7235
:1014800007F108026423009304234E21034803F06C
:10149000E7F800BF1037BD4680BD00BF940C0020A8
:1014A00080B500AF0220FFF7CBFF2820FFF7C8FF71
:1014B0000C20FFF7C5FF8020FFF7C2FF00BF80BDF3
:1014C00080B500AF0121012001F0E6F801220849B2
:1014D000084801F077F91321012001F0DDF801221D
:1014E0000349054801F06EF901F030F800BF80BDF6
:1014F0006000002018A5000828A5000880B500AFEE
:10150000B24BD3ED007AB0EE087AF4EEC77AF1EE82
:1015100010FA02DDAD4BAE4A1A60AC4BD3ED007A47
:10152000B7EE007AF4EEC77AF1EE10FA03D5A74BC6
:101530004FF07E521A600121A64802F027FF0346B1
:10154000002B0CD0A14BD3ED007AB7EE007A77EEEA
:10155000877A9E4BC3ED007A322001F0A1FF022171
:101560009D4802F013FF0346002B0CD0974BD3EDA0
:10157000007AB7EE007A77EEC77A944BC3ED007A23
:10158000322001F08DFF4FF40051944802F0FEFE2E
:101590000346002B06D0924B01221A60C82001F0AE
:1015A0007FFF02E08E4B00221A60884BD3ED007A59
:1015B000B7EE007AF4EE477AF1EE10FA4FD101213E
:1015C000012001F069F801228649874801F0FAF804
:1015D0001321012001F060F801228249834801F0C3
:1015E000F1F81E21012001F057F801227D498048C1
:1015F00001F0E8F82821012001F04EF801227D4990
:101600007D4801F0DFF800F0A1FF704BD3ED007AC8
:10161000B7EE007AF4EE477AF1EE10FA1FD1704B74
:101620001B68012B1BD110E0FFF7BEFC4FF40051EB
:101630006A4802F0ABFE0346012B06D1C82001F038
:101640002FFF624B4FF000021A60604BD3ED007A1F
:10165000B7EE007AF4EE477AF1EE10FAE4D05B4B85
:10166000D3ED007AB0EE007AF4EE477AF1EE10FA9C
:101670004FD10121012001F00FF8012259495F48A3
:1016800001F0A0F81321012001F006F801225549CC
:10169000564801F097F81E21012000F0FDFF0122BD
:1016A0005049574801F08EF82821012000F0F4FF3E
:1016B00001225049534801F085F800F047FF434BA1
:1016C000D3ED007AB0EE007AF4EE477AF1EE10FA3C
:1016D0001FD1434B1B68012B1BD110E000F0F0FB26
:1016E0004FF400513D4802F051FE0346012B06D154
:1016F000C82001F0D5FE354B4FF000021A60334B85
:10170000D3ED007AB0EE007AF4EE477AF1EE10FAFB
:10171000E4D02E4BD3ED007AB0EE087AF4EE477A9F
:10172000F1EE10FA4FD10121012000F0B5FF0122A6
:101730002C49324801F046F81321012000F0ACFF9B
:1017400001222849294801F03DF81E21012000F01E
:10175000A3FF01222349264801F034F82821012063
:1017600000F09AFF01222349274801F02BF800F0EE
:10177000EDFE164BD3ED007AB0EE087AF4EE477A20
:10178000F1EE10FA1FD1164B1B68012B1BD110E094
:1017900001F05EFB4FF40051104802F0F7FD0346E4
:1017A000012B06D1C82001F07BFE084B4FF0000250
:1017B0001A60064BD3ED007AB0EE087AF4EE477A61
:1017C000F1EE10FAE4D000BF80BD00BF7800002029
:1017D00000004040000402400008024000140240A3
:1017E00048030020600000203CA5000828A5000850
:1017F00054A500086800002068A500087CA5000822
:1018000094A50008A8A50008BCA5000880B500AFF5
:1018100001F0D4FD00F018F800F016FA00F0BCF961
:1018200000F0E4F900F024F900F04CF900F07CF845
:1018300000F0CCF800F086F901F060FDFFF740FE03
:10184000FFF75CFEFCE7000080B594B000AF07F145
:10185000200330220021184604F0DCFF07F10C03BE
:1018600000221A605A609A60DA601A610023BB6035
:101870002B4B1B6C2A4A43F080531364284B1B6C80
:1018800003F08053BB60BB6800237B60254B1B6863
:1018900023F44043234A43F480431360214B1B68E5
:1018A00003F440437B607B6803233B624FF4A02337
:1018B0007B620123FB6210233B630223BB634FF473
:1018C0008003FB6304233B64A8237B640223BB6483
:1018D0000723FB6407F12003184603F08FFC03463F
:1018E000002B01D000F0E4FA0F23FB6000233B61E2
:1018F00000237B614FF4A053BB614FF48053FB6125
:1019000007F10C030021184603F0E8FE0346002B04
:1019100001D000F0CDFA00BF5037BD4680BD00BFFA
:10192000003802400070004080B584B000AF3B46F4
:1019300000221A605A609A60DA60214B214A1A60CC
:101940001F4B4FF400325A601D4B00229A601C4B13
:1019500000221A611A4B00221A76194B002283F8D2
:101960002020174B0022DA62154B174A9A62144B5B
:101970000022DA60124B0122DA61114B002283F857
:1019800030200F4B01225A610D4801F0ABFD034698
:10199000002B01D000F08CFA03233B6001237B6015
:1019A0000023BB603B461946054801F037FF03465C
:1019B000002B01D000F07CFA00BF1037BD4680BD7F
:1019C00090070020002001400100000F80B584B086
:1019D00000AF3B4600221A605A609A60DA60214BE1
:1019E000214A1A601F4B4FF400325A601D4B0022EF
:1019F0009A601C4B00221A611A4B00221A76194B6E
:101A0000002283F82020174B0022DA62154B174A78
:101A10009A62144B0022DA60124B0122DA61114BF8
:101A2000002283F830200F4B01225A610D4801F04B
:101A300059FD0346002B01D000F03AFA0A233B601F
:101A400001237B600023BB603B461946054801F03B
:101A5000E5FE0346002B01D000F02AFA00BF103744
:101A6000BD4680BDD8070020002201400100000FC4
:101A700080B582B000AF3B4600221A605A600F4B1F
:101A80000F4A1A600D4802F0DCF90346002B01D022
:101A900000F00EFA00233B6000237B603B460022EF
:101AA0001946064802F055FA0346002B01D000F013
:101AB000FFF900BF0837BD4680BD00BF20080020E9
:101AC0000074004080B500AF1B4B1C4A1A601A4BD3
:101AD0001B4A5A60184B00229A60174B0022DA60AA
:101AE000154B4FF480421A61134B00225A61124B7E
:101AF00000229A61104B0022DA610F4B00221A6219
:101B00000D4802F075FC0346002B01D000F0D0F91F
:101B10000021094803F0D9F90346002B01D000F059
:101B2000C7F90021044803F00CFA0346002B01D04A
:101B300000F0BEF900BF80BD940C002000580040AA
:101B4000801A060080B500AF114B124A1A60104B84
:101B50004FF4E1325A600E4B00229A600C4B002287
:101B6000DA600B4B00221A61094B0C225A61084BB8
:101B700000229A61064B0022DA61054803F0A0FFBB
:101B80000346002B01D000F093F900BF80BD00BFD9
:101B9000E80C00200050004080B500AF114B124A05
:101BA0001A60104B4FF4E1325A600E4B00229A60DB
:101BB0000C4B0022DA600B4B00221A61094B0C22FD
:101BC0005A61084B00229A61064B0022DA610548EF
:101BD00003F076FF0346002B01D000F069F900BF47
:101BE00080BD00BF4C0800200048004080B500AF19
:101BF000144B4FF0A0421A60124B04225A60114B52
:101C00000222DA600F4B00221A610E4B02229A6107
:101C10000C4B0122DA610B4B00221A62094B0022A5
:101C20005A62084B0122DA62064B00221A63054809
:101C300003F0C6F90346002B01D000F039F900BFCC
:101C400080BD00BF8C08002080B58CB000AF07F1CC
:101C50001C0300221A605A609A60DA601A6100233D
:101C6000BB618C4B1B6B8B4A43F004031363894BA2
:101C70001B6B03F00403BB61BB6900237B61854BD5
:101C80001B6B844A43F020031363824B1B6B03F0EE
:101C900020037B617B6900233B617E4B1B6B7D4A8C
:101CA00043F0800313637B4B1B6B03F080033B61AA
:101CB0003B690023FB60774B1B6B764A43F00103C3
:101CC0001363744B1B6B03F00103FB60FB68002381
:101CD000BB60704B1B6B6F4A43F0020313636D4B89
:101CE0001B6B03F00203BB60BB6800237B60694B86
:101CF0001B6B684A43F008031363664B1B6B03F0CE
:101D000008037B607B6800233B60624B1B6B614A6E
:101D100043F0400313635F4B1B6B03F040033B60D6
:101D20003B68002240215C4802F048FB00228021F1
:101D30005A4802F043FB4FF40053FB61584B3B629F
:101D400000237B6207F11C031946564802F074F920
:101D500042F21003FB6100233B6202237B6207F126
:101D60001C031946504802F067F940F60203FB6174
:101D700000233B6202237B6207F11C03194649489A
:101D800002F05AF98623FB6102233B6200237B6247
:101D90000323BB620B23FB6207F11C031946434874
:101DA00002F04AF92023FB6100233B6202237B629D
:101DB00007F11C0319463D4802F03EF93023FB6150
:101DC00002233B6200237B620323BB620B23FB6283
:101DD00007F11C031946334802F02EF944F20103BF
:101DE000FB6100233B6202237B6207F11C0319465F
:101DF0002A4802F021F94FF40053FB6102233B62B1
:101E000000237B620323BB620B23FB6207F11C03ED
:101E10001946224802F010F94023FB6101233B627E
:101E200000237B620023BB6207F11C0319461A489A
:101E300002F002F98023FB6100233B6200237B62F6
:101E400007F11C031946144802F0F6F84FF420532A
:101E5000FB6102233B6200237B620323BB620B23F3
:101E6000FB6207F11C0319460B4802F0E5F88023DA
:101E7000FB6101233B6200237B620023BB6207F10D
:101E80001C031946054802F0D7F800BF3037BD469D
:101E900080BD00BF0038024000180240000402402C
:101EA000000011100008024000140240000002402F
:101EB00080B400AF00BFBD465DF8047B70470000F2
:101EC00090B583B000AF00219F4801F0DCFF9F4830
:101ED00001F04CFB9D4801F093FC07EE900AF8EEF0
:101EE000677A9B4BC3ED007A994B1B681846FEF747
:101EF0003BFB87A3D3E90023FEF78EFB03460C468A
:101F000018462146FEF780FE0246924B1A60914B1E
:101F10001B681846FEF728FB03460C461A46234664
:101F20007DA1D1E90001FEF7BFF903460C46184632
:101F300021467BA3D3E90023FEF76EFB03460C4644
:101F40001846214678A3D3E90023FEF7AFF90346EC
:101F50000C4644EC173BB0EE470AF0EE670A08F077
:101F600099F954EC103B1A46234671A1D1E90001BE
:101F7000FEF79AF903460C46184621466EA3D3E9AC
:101F80000023FEF773FC03460C46184621464FF02B
:101F90000002714BFEF78AF903460C4618462146AB
:101FA000FEF732FE02466D4B1A606C4BD3ED007AA1
:101FB000FCEEE77A17EE902A694B1A600A2001F0CE
:101FC0006FFA684801F0D2FA4FF0FF31654801F02E
:101FD00093FB0346002B35D1624801F011FC07EE5C
:101FE000900AF8EE677A604BC3ED007A5E4B1B688F
:101FF0001846FEF7B9FA52A3D3E90023FEF70CFB0B
:1020000003460C46184621464FF00002574BFEF798
:102010002DFC03460C4618462146FEF7F5FD024608
:10202000534B1A60534B4FF000021A60514BD3EDE3
:10203000007AF5EE407AF1EE10FA03D04E4B4FF0F5
:1020400000021A600A2001F02BFA01214B4802F02D
:102050009DF90346002B37D001F016FA78602CE08A
:1020600001F012FA02467B68D31AB3F5967F10D9B5
:1020700001F00AFA7860404BD3ED007A9FED407A88
:1020800077EE877A3C4BC3ED007A052001F008FA21
:102090001AE001F0F9F902467B68D31A142B0CD927
:1020A000354BD3ED007AB7EE007A77EE877A324B74
:1020B000C3ED007A642001F0F3F901212F4802F00A
:1020C00065F90346002BCBD102212E4802F05EF9C0
:1020D0000346002B73D001F0D7F9386068E001F0B7
:1020E000D3F902463B68D31AB3F5967F4CD901F079
:1020F000CBF93860204BD3ED007A9FED217A77EE53
:10210000C77A1D4BC3ED007A052001F0C9F956E0EE
:10211000986E1283C0CAE93F9A999999996DA14026
:102120003F52448655BC913F282EC72B100F674065
:10213000448B6CE7FB292B403F52448655BC81BF42
:1021400052B81E85EBD128402008002090070020BF
:10215000480D0020280D002000003E403C0D0020CE
:102160002C0D0020D80700204C03002000408F4099
:1021700050030020800000207C000020000402406A
:10218000000048420008024001F07EF902463B6828
:10219000D31A142B0CD9744BD3ED007AB7EE007A16
:1021A00077EEC77A704BC3ED007A642001F078F9BE
:1021B00002216E4802F0EAF80346002B8FD16C4BE7
:1021C000D3ED006A684B93ED007AC6EE877A9FEDF7
:1021D000697A67EE877A684BC3ED007A624BD3ED7C
:1021E000007AFCEEE77A17EE902A644B1A60624B95
:1021F000D3ED007AFCEEE77A17EE902A604B1A6076
:102200005D4BD3ED007A9FED5F7AF4EEC77AF1EE85
:1022100010FA02DD584B5C4A1A60594B1B68642B5C
:1022200002D9574B64221A600121012000F034FAD0
:10223000534B1B681A465549554805F037F901229A
:102240005449534800F0BEFA0121692000F024FAF5
:1022500001225049504800F0B5FA504B1B681A460D
:102260004F49504805F022F91321012000F014FADB
:10227000012248494B4800F0A5FA404B1B681A461A
:1022800049494A4805F012F92521012000F004FAD5
:1022900001224749454800F095FA25214B2000F0DE
:1022A000FBF901224249434800F08CFA00F04EF954
:1022B000142001F0F5F82C4BD3ED007AB7EE007A3C
:1022C000F4EEC77AF1EE10FA03D5274B4FF07E52A9
:1022D0001A60294BD3ED007AF5EEC07AF1EE10FAD0
:1022E00003D5254B4FF000021A60234BD3ED007A43
:1022F000B3EE047A67EE877A2F4BC3ED007A2E4B4C
:1023000093ED007ADFED2D6AC7EE267A2C4BC3EDF4
:10231000007A2B4BD3ED007A9FED2A7AF4EEC77A40
:10232000F1EE10FA02DD264B274A1A60124BD3ED6C
:10233000007A9FED147AF4EEC77AF1EE10FA02DD1E
:102340000D4B114A1A601E4BD3ED007AFCEEE77A72
:1023500017EE903A002200211C4801F047FE00BF12
:102360000C37BD4690BD00BF7C0000200008024035
:102370005003002000007A4480000020440D00201B
:10238000400D00200000C8420000C842D4A500084B
:10239000C400002060000020F0A500082C0D0020E3
:1023A000F4A50008A40000200CA60008840000206A
:1023B0007000002018A60008300D002000404E3F9D
:1023C0005403002000F07F4500F07F4520080020E6
:1023D00080B582B000AF00F01BFA44F62063012202
:1023E0007821584802F03AFA0346002B01D0002326
:1023F000A4E040F6C4137B6002E07B68013B7B6095
:102400007B68002BF9D1AE220021782000F06EFA13
:1024100020220021782000F069FA10220021782083
:1024200000F064FAB0220021782000F05FFAC822A0
:102430000021782000F05AFA00220021782000F0D4
:1024400055FA10220021782000F050FA4022002195
:10245000782000F04BFA81220021782000F046FA23
:10246000FF220021782000F041FAA12200217820EB
:1024700000F03CFAA6220021782000F037FAA822CA
:102480000021782000F032FA3F220021782000F06D
:102490002DFAA4220021782000F028FAD32200216E
:1024A000782000F023FA00220021782000F01EFAA4
:1024B000D5220021782000F019FAF022002178209E
:1024C00000F014FAD9220021782000F00FFA22221D
:1024D0000021782000F00AFADA220021782000F0AA
:1024E00005FA12220021782000F000FADB220021F8
:1024F000782000F0FBF920220021782000F0F6F986
:102500008D220021782000F0F1F91422002178209A
:1025100000F0ECF9AF220021782000F0E7F900206C
:1025200000F042F800F012F8074B00221A80064B28
:1025300000225A80044B01225A71012318460837A1
:10254000BD4680BD940C00205807002080B582B0A5
:1025500000AF0023FB711DE0FB79503BDBB21A4654
:102560000021782000F0C2F900220021782000F03C
:10257000BDF910220021782000F0B8F9FB79DB01C9
:10258000084A1A4480234021782000F055F9FB794D
:102590000133FB71FB79072BDED900BF0837BD463D
:1025A00080BD00BF5803002080B582B000AF034655
:1025B000FB71FB79002B01D1002300E0FF234FF4D6
:1025C00080621946034804F025F900BF0837BD466C
:1025D00080BD00BF5803002080B483B000AF034625
:1025E000FB800B46BB801346FB70FB887F2B48D8D3
:1025F000BB883F2B45D8264B1B79002B06D0FB7898
:10260000002B0CBF01230023DBB2FB70FB78012BF6
:102610001AD1FA88BB88DB0898B20346DB01134461
:102620001C4AD35C5AB2BB8803F00703012101FAAC
:1026300003F35BB2134359B2FA880346DB01134438
:10264000C9B2144AD1541DE0FA88BB88DB0898B29D
:102650000346DB0113440F4AD35C5AB2BB8803F034
:102660000703012101FA03F35BB2DB435BB21340C2
:1026700059B2FA880346DB011344C9B2054AD15462
:1026800000E000BF0C37BD465DF8047B704700BF1B
:10269000580700205803002080B483B000AF0346E1
:1026A0000A46FB801346BB80054AFB881380044A18
:1026B000BB88538000BF0C37BD465DF8047B704774
:1026C0005807002080B586B000AF03463960FB7123
:1026D0001346BB713A4B1B881A463B681B78134460
:1026E0007F2B07DC364B5B881A463B685B781344CC
:1026F0003F2B01DD00235EE000237B614BE03B6864
:102700005A68FB79203B3968497801FB03F3194685
:102710007B690B445B0013441B88FB6000233B6117
:1027200030E0FA683B6902FA03F303F40043002B3C
:1027300010D0234B1A883B699BB2134498B2204BAC
:102740005A887B699BB213449BB2BA791946FFF74A
:1027500043FF14E01A4B1A883B699BB2134498B2AA
:10276000174B5A887B699BB2134499B2BB79002BF3
:102770000CBF01230023DBB21A46FFF72DFF3B6994
:1027800001333B613B681B781A463B699342C8D3CF
:102790007B6901337B613B685B781A467B699342B6
:1027A000ADD3074B1A883B681B789BB213449AB28F
:1027B000034B1A80FB7918461837BD4680BD00BF11
:1027C0005807002080B584B000AFF860B9601346A8
:1027D000FB7112E0FB681B78FA79B9681846FFF7BD
:1027E00071FF03461A46FB681B789A4202D0FB68C9
:1027F0001B7808E0FB680133FB60FB681B78002B4B
:10280000E8D1FB681B7818461037BD4680BD000034
:1028100080B483B000AF074B7B6002E07B68013B74
:102820007B607B68002BF9D100BF0C37BD465DF89B
:10283000047B704790D00300B0B588B002AF3A6017
:102840001A460346FB710B46BB711346BB806B46B1
:102850001D46BB88581C431E3B61034619464FF07A
:1028600000024FF000034FF00004D40044EA51741A
:10287000CB00034619464FF000024FF000034FF023
:102880000004D40044EA5174CB0003460733DB084C
:10289000DB00ADEB030D02AB0033FB60FB68BA79E4
:1028A0001A700123FB750AE0FB7D013B3A681A446C
:1028B000FB7D1178FA68D154FB7D0133FB75FB7DFC
:1028C0009BB2BA889A42EFD2FB7999B2FA68B8887B
:1028D0000A2300930346044801F0C2FEAD4600BF40
:1028E0001837BD46B0BD00BF940C002080B586B03F
:1028F00002AF0346FB710B46BB7113467B71BB797C
:102900003B737B797B73FB7999B207F10C020A2345
:1029100000930223034801F0A3FE00BF1037BD4619
:1029200080BD00BF940C002080B483B000AF0023B2
:102930007B60104B5B6C0F4A43F4804353640D4B38
:102940005B6C03F480437B607B6800233B60094B36
:102950001B6C084A43F080531364064B1B6C03F056
:1029600080533B603B6800BF0C37BD465DF8047B7D
:10297000704700BF0038024080B58CB000AF78606F
:1029800007F11C0300221A605A609A60DA601A612B
:102990007B681B682E4A934228D10023BB612D4BD4
:1029A0005B6C2C4A43F4807353642A4B5B6C03F4D6
:1029B0008073BB61BB6900237B61264B1B6B254A7F
:1029C00043F001031363234B1B6B03F001037B6193
:1029D0007B690823FB6103233B6200237B6207F1D1
:1029E0001C0319461C4801F027FB2CE07B681B6880
:1029F0001A4A934227D100233B61164B5B6C154A60
:102A000043F480635364134B5B6C03F480633B615A
:102A10003B690023FB600F4B1B6B0E4A43F0040322
:102A200013630C4B1B6B03F00403FB60FB68012377
:102A3000FB6103233B6200237B6207F11C03194601
:102A4000074801F0F9FA00BF3037BD4680BD00BF2E
:102A500000200140003802400000024000220140F6
:102A60000008024080B58AB000AF786007F1140317
:102A700000221A605A609A60DA601A617B681B68EB
:102A8000174A934227D100233B61164B1B6C154A12
:102A900043F000531364134B1B6C03F000533B6172
:102AA0003B690023FB600F4B1B6B0E4A43F0010395
:102AB00013630C4B1B6B03F00103FB60FB681023DB
:102AC0007B610323BB610023FB6107F114031946FB
:102AD000054801F0B1FA00BF2837BD4680BD00BFF0
:102AE00000740040003802400000024080B58AB007
:102AF00000AF786007F1140300221A605A609A60F0
:102B0000DA601A617B681B68194A93422BD1002353
:102B10003B61184B1B6B174A43F020031363154BA3
:102B20001B6B03F020033B613B6903237B61122392
:102B3000BB610123FB6103233B6204237B6207F13A
:102B4000140319460C4801F077FA0023FB60094B87
:102B50001B6C084A43F480031364064B1B6C03F49C
:102B60008003FB60FB6800BF2837BD4680BD00BF07
:102B700000580040003802400014024080B58CB07C
:102B800000AF786007F11C0300221A605A609A6057
:102B9000DA601A617B681B68424A93424BD100237A
:102BA000BB61414B1B6C404A43F4801313643E4BA2
:102BB0001B6C03F48013BB61BB6900237B613A4B40
:102BC0001B6B394A43F004031363374B1B6B03F051
:102BD00004037B617B6900233B61334B1B6B324AEF
:102BE00043F008031363304B1B6B03F008033B6196
:102BF0003B694FF48053FB6102233B6201237B62FC
:102C00000323BB620823FB6207F11C031946274814
:102C100001F012FA0423FB6102233B6201237B6271
:102C20000323BB620823FB6207F11C0319462048FB
:102C300001F002FA31E07B681B681E4A93422CD1F6
:102C40000023FB60184B1B6C174A43F4802313646A
:102C5000154B1B6C03F48023FB60FB680023BB60F7
:102C6000114B1B6B104A43F0080313630E4B1B6B95
:102C700003F00803BB60BB684FF44073FB610223A1
:102C80003B6200237B620323BB620723FB6207F1E5
:102C90001C031946064801F0CFF900BF3037BD4686
:102CA00080BD00BF005000400038024000080240D4
:102CB000000C02400048004080B58AB000AF786048
:102CC00007F1140300221A605A609A60DA601A61F0
:102CD0007B681B68B3F1A04F3FD100233B61214BC0
:102CE0001B6B204A43F0010313631E4B1B6B03F065
:102CF00001033B613B694FF4E8537B610223BB61F5
:102D00000023FB6103233B620A237B6207F1140368
:102D10001946154801F090F94FF400737B610023C8
:102D2000BB610023FB6107F1140319460E4801F053
:102D300083F90C4B5B6B0B4A43F080035363002316
:102D4000FB60084B5B6C074A43F480435364054BBC
:102D50005B6C03F48043FB60FB6800BF2837BD4613
:102D600080BD00BF003802400000024080B400AFC8
:102D700000BFBD465DF8047B704780B400AFFEE73E
:102D800080B400AFFEE780B400AFFEE780B400AFD0
:102D9000FEE780B400AF00BFBD465DF8047B70471E
:102DA00080B400AF00BFBD465DF8047B704780B4BF
:102DB00000AF00BFBD465DF8047B704780B500AF33
:102DC00000F04EFB00BF80BD80B584B000AF7860DE
:102DD000114B1B68002B02D10F4B104A1A600E4B8F
:102DE0001B68FB600C4B1A687B6813446A4693426D
:102DF00007D903F0E5FC02460C2313604FF0FF33C4
:102E000006E0054B1A687B681344034A1360FB68AD
:102E100018461037BD4680BD60070020780D0020A1
:102E200080B400AF084BD3F88830074A43F47003EE
:102E3000C2F88830044B4FF000629A6000BFBD4674
:102E40005DF8047B704700BF00ED00E0000000006B
:102E500090B583B000AF0021974801F014F897486F
:102E600000F084FB954800F0CBFC07EE900AF8EEEA
:102E7000677A934BC3ED007A914B1B681846FDF7B8
:102E800073FB7FA3D3E90023FDF7C6FB03460C4683
:102E900018462146FDF7B8FE02468A4B1A60894B58
:102EA0001B681846FDF760FB03460C461A4623468E
:102EB00075A1D1E90001FDF7F7F903460C46184664
:102EC000214673A3D3E90023FDF7A6FB03460C4676
:102ED0001846214670A3D3E90023FDF7E7F903461E
:102EE0000C4644EC173BB0EE470AF0EE670A07F0D9
:102EF000D1F954EC103B1A46234669A1D1E90001EF
:102F0000FDF7D2F903460C461846214666A3D3E9DD
:102F10000023FDF7ABFC03460C46184621464FF054
:102F20000002694BFDF7C2F903460C4618462146DC
:102F3000FDF76AFE0246654B1A60644BD3ED007ADA
:102F4000FCEEE77A17EE902A614B1A600A2000F037
:102F5000A7FA604800F00AFB4FF0FF315D4800F02F
:102F6000CBFB0346002B25D15A4800F049FC07EE65
:102F7000900AF8EE677A584BC3ED007A564B1B68FF
:102F80001846FDF7F1FA4AA3D3E90023FDF744FB05
:102F900003460C46184621464FF000024F4BFDF702
:102FA00065FC03460C4618462146FDF72DFE0246F9
:102FB0004B4B1A6001214B4801F0E8F90346002B06
:102FC00037D000F061FA78602CE000F05DFA02463C
:102FD0007B68D31AB3F5967F10D900F055FA786064
:102FE000414BD3ED007A9FED417A77EE877A3E4BE5
:102FF000C3ED007A052000F053FA1AE000F044FA1D
:1030000002467B68D31A142B0CD9374BD3ED007AC8
:103010009FED377A77EE877A334BC3ED007A6420E1
:1030200000F03EFA01212F4801F0B0F90346002BD1
:10303000CBD102212F4801F0A9F90346002B76D00D
:1030400000F022FA38606BE000F01EFA02463B689E
:10305000D31AB3F5967F4FD900F016FA3860224B99
:10306000D3ED007A9FED217A77EEC77A1E4BC3ED40
:10307000007A052000F014FA59E000BFAFF3008099
:10308000986E1283C0CAE93F9A999999996DA140A7
:103090003F52448655BC913F282EC72B100F6740E6
:1030A000448B6CE7FB292B403F52448655BC81BFC3
:1030B00052B81E85EBD12840200800209007002040
:1030C0004C0D0020600D002000003E40500D0020FF
:1030D0005C0D0020D80700206407002000408F40CE
:1030E0006807002000040240680D00200000C8426C
:1030F000000048420008024000F0C6F902463B6862
:10310000D31A142B0CD9674BD3ED007A9FED667A56
:1031100077EEC77A634BC3ED007A642000F0C0F904
:103120000221624801F032F90346002B8CD1604B3A
:10313000D3ED007AB7EE007AF4EEC77AF1EE10FA2A
:1031400003D55C4B4FF000021A60564BD3ED006A7A
:10315000574B93ED007AC6EE877A564BC3ED007A53
:10316000544BD3ED007AB3EE047A67EE877A524B74
:10317000C3ED007A504B93ED007ADFED506AC7EE55
:10318000267A4F4BC3ED007A4A4BD3ED007AB7EE67
:10319000007A77EEC77AFCEEE77A17EE902A494B71
:1031A0001A60484B1B68642B02D9464B64221A6094
:1031B0003C4BD3ED007AFCEEE77A17EE902A424BB7
:1031C0001A60384BD3ED007AF5EEC07AF1EE10FAC2
:1031D00003D5344B4FF000021A6001210120FFF7A4
:1031E0005BFA384B1B681A463849394804F05EF9D7
:1031F000012238493648FFF7E5FA01216920FFF737
:103200004BFA012233493448FFF7DCFA334B1B6891
:103210001A463349334804F049F913210120FFF7D6
:103220003BFA01222B492F48FFF7CCFA264B1B68AB
:103230001A462D492D4804F039F925210120FFF7C0
:103240002BFA01222A492948FFF7BCFA25215720E9
:10325000FFF722FA012226492648FFF7B3FAFFF7C3
:1032600075F9142000F01CF9114BD3ED007AB7EE7C
:10327000007AF4EEC77AF1EE10FA02D5114B002273
:103280001A600F4BD3ED007AFCEEE77A17EE903A16
:1032900000220021184800F0A9FE00BF0C37BD46EF
:1032A00090BD00BF680D00200000484200080240A9
:1032B0006807002070070020580D002000404E3F96
:1032C0006C070020640D0020540D002020A600088B
:1032D00028010020600000203CA600085C0D0020B2
:1032E00040A600080801002058A60008E8000020B9
:1032F0007000002064A600082008002080B500AF00
:10330000FEF7CEF8FFF764F80020FFF74DF9FFF75E
:103310001DF912210A20FFF7BFF901220E490F48BB
:10332000FFF750FA2D210220FFF7B6F901220C49D0
:103330000C48FFF747FAFFF709F94FF4FA7000F06D
:10334000AFF80020FFF730F9FFF700F90021002067
:10335000FFF7A2F900BF80BD680000206CA600083E
:103360006000002074A60008DFF834D0002103E0DC
:103370000C4B5B58435004310B480C4B42189A429B
:10338000F6D30B4A02E0002342F8043B094B9A4271
:10339000F9D3FFF745FD03F019FAFEF737FA704746
:1033A000000003207CD1000800000020240300203E
:1033B00024030020780D0020FEE7000080B500AF58
:1033C0000E4B1B680D4A43F4007313600B4B1B68D4
:1033D0000A4A43F480631360084B1B68074A43F4AE
:1033E00080731360032000F0F9FC002000F008F85F
:1033F000FFF79AFA0023184680BD00BF003C024048
:1034000080B582B000AF7860124B1A68124B1B78FF
:1034100019464FF47A73B3FBF1F3B2FBF3F318469A
:1034200000F003FD0346002B01D001230EE07B6872
:103430000F2B0AD8002279684FF0FF3000F0D9FC3A
:10344000064A7B681360002300E001231846083712
:10345000BD4680BDE40000204C0100204801002052
:1034600080B400AF064B1B781A46064B1B6813440A
:10347000044A136000BFBD465DF8047B704700BF7F
:103480004C010020700D002080B400AF034B1B687E
:103490001846BD465DF8047B704700BF700D0020E4
:1034A00080B584B000AF7860FFF7EEFFB8607B684E
:1034B000FB60FB68B3F1FF3F05D0094B1B781A4650
:1034C000FB681344FB6000BFFFF7DEFF0246BB68EA
:1034D000D31AFA689A42F7D800BF1037BD4680BDAC
:1034E0004C01002080B584B000AF78600023FB73EE
:1034F0007B68002B01D1012333E07B681B6C002B20
:1035000009D17868FFF738FA7B6800225A647B6833
:10351000002283F83C207B681B6C03F01003002B17
:1035200018D17B681B6C23F4885323F0020343F00B
:1035300002027B681A64786800F0A2FA7B680022B5
:103540005A647B681B6C23F0030343F001027B6821
:103550001A6401E00123FB737B68002283F83C209E
:10356000FB7B18461037BD4680BD000080B485B097
:1035700000AF78600023BB607B6893F83C30012B80
:1035800001D10223A5E07B68012283F83C207B68FF
:103590001B689B6803F00103012B18D07B681B6834
:1035A0009A687B681B6842F001029A604C4B1B686A
:1035B0004C4AA2FB03239A0C13465B001344BB60E6
:1035C00002E0BB68013BBB60BB68002BF9D17B68A4
:1035D0001B689B6803F00103012B79D17B681B6C8E
:1035E00023F4E06323F0010343F480727B681A64E0
:1035F0007B681B685B6803F48063002B07D07B68E3
:103600001B6C23F4405343F480527B681A647B683C
:103610001B6C03F48053B3F5805F06D17B685B6C51
:1036200023F006027B685A6402E07B6800225A6439
:103630007B68002283F83C202B4BFB607B681B6877
:103640006FF022021A60FB685B6803F01F03002B17
:103650002AD17B681B68254A934215D07B681B687A
:10366000234A934205D1204B5B6803F01F03002BD4
:103670000AD07B681B681F4A934229D11A4B5B68AA
:1036800003F01F030F2B23D87B681B689B6803F094
:103690004053002B1CD17B681B689A687B681B68B1
:1036A00042F080429A6013E07B681B680F4A9342A5
:1036B0000ED17B681B689B6803F04053002B07D139
:1036C0007B681B689A687B681B6842F080429A603E
:1036D000002318461437BD465DF8047B704700BFD1
:1036E000E400002083DE1B43002301400020014052
:1036F000002101400022014080B584B000AF786015
:1037000039600023FB607B681B689B6803F480635F
:10371000B3F5806F13D17B681B689B6803F48073DB
:10372000B3F5807F0BD17B681B6C43F020027B6874
:103730001A647B68002283F83C2001235CE0FFF7D9
:10374000A3FEF8601AE03B68B3F1FF3F16D03B6878
:10375000002B07D0FFF798FE0246FB68D31A3A68A1
:103760009A420BD27B681B6C43F004027B681A649C
:103770007B68002283F83C2003233DE07B681B68C4
:103780001B6803F00203022BDDD17B681B686FF01E
:1037900012021A607B681B6C43F400727B681A6427
:1037A0007B681B689B6803F04053002B23D17B6828
:1037B0001B7E002B1FD17B681B68DB6A03F4700340
:1037C000002B06D07B681B689B6803F48063002B8A
:1037D00011D17B681B6C23F480727B681A647B6850
:1037E0001B6C03F48053002B05D17B681B6C43F0EA
:1037F00001027B681A64002318461037BD4680BD5D
:1038000080B483B000AF78607B681B68DB6C1846BF
:103810000C37BD465DF8047B7047000080B485B06E
:1038200000AF786039600023BB607B6893F83C3060
:10383000012B01D1022313E17B68012283F83C2094
:103840003B681B68092B25D97B681B68D9683B68D6
:103850001B689BB21A4613465B0013441E3B0722AB
:1038600002FA03F3DA437B681B680A40DA607B687C
:103870001B68D9683B689A683B681B689BB218460E
:1038800003465B0003441E3B9A407B681B680A4367
:10389000DA6022E07B681B6819693B681B689BB291
:1038A0001A4613465B001344072202FA03F3DA4375
:1038B0007B681B680A401A617B681B6819693B6852
:1038C0009A683B681B689BB2184603465B0003443A
:1038D0009A407B681B680A431A613B685B68062B49
:1038E00024D87B681B68596B3B685A6813469B0059
:1038F0001344053B1F2202FA03F3DA437B681B687B
:103900000A405A637B681B68596B3B681B689BB213
:1039100018463B685A6813469B001344053B00FA5F
:1039200003F27B681B680A435A634CE03B685B68A0
:103930000C2B24D87B681B68196B3B685A681346AC
:103940009B001344233B1F2202FA03F3DA437B68F4
:103950001B680A401A637B681B68196B3B681B680D
:103960009BB218463B685A6813469B001344233B9E
:1039700000FA03F27B681B680A431A6323E07B6842
:103980001B68D96A3B685A6813469B001344413B45
:103990001F2202FA03F3DA437B681B680A40DA62EB
:1039A0007B681B68D96A3B681B689BB218463B68FA
:1039B0005A6813469B001344413B00FA03F27B68AC
:1039C0001B680A43DA62294BFB607B681B68284A44
:1039D00093420FD13B681B68122B0BD1FB685B68CD
:1039E00023F40002FB685A60FB685B6843F48002C2
:1039F000FB685A607B681B681D4A93422BD13B6869
:103A00001B681C4A934203D03B681B68112B22D1D0
:103A1000FB685B6823F48002FB685A60FB685B68A4
:103A200043F40002FB685A603B681B68114A9342EA
:103A300011D1114B1B68114AA2FB03239A0C1346A8
:103A40009B0013445B00BB6002E0BB68013BBB60B2
:103A5000BB68002BF9D17B68002283F83C2000234F
:103A600018461437BD465DF8047B704700230140BB
:103A70000020014012000010E400002083DE1B4300
:103A800080B485B000AF7860794BFB60FB685B6801
:103A900023F44032FB685A60FB685A687B685B68B5
:103AA0001A43FB685A607B681B685A687B681B680E
:103AB00022F480725A607B681B6859687B681B69B6
:103AC0001A027B681B680A435A607B681B685A6845
:103AD0007B681B6822F040725A607B681B685968DB
:103AE0007B689A687B681B680A435A607B681B681E
:103AF0009A687B681B6822F400629A607B681B6886
:103B000099687B68DA687B681B680A439A607B68FF
:103B10009B6A584A934222D07B681B689A687B68EC
:103B20001B6822F070629A607B681B6899687B68EA
:103B30009A6A7B681B680A439A607B681B689A686C
:103B40007B681B6822F040529A607B681B6899680A
:103B50007B68DA6A7B681B680A439A600FE07B68BF
:103B60001B689A687B681B6822F070629A607B68A9
:103B70001B689A687B681B6822F040529A607B68D9
:103B80001B689A687B681B6822F002029A607B6857
:103B90001B6899687B681B7E5A007B681B680A4318
:103BA0009A607B6893F82030002B1BD07B681B68E1
:103BB0005A687B681B6842F400625A607B681B6825
:103BC0005A687B681B6822F460425A607B681B68F5
:103BD00059687B685B6A013B5A037B681B680A4330
:103BE0005A6007E07B681B685A687B681B6822F490
:103BF00000625A607B681B68DA6A7B681B6822F483
:103C00007002DA627B681B68D96A7B68DB69013BFA
:103C10001A057B681B680A43DA627B681B689A682E
:103C20007B681B6822F400729A607B681B68996845
:103C30007B6893F830305A027B681B680A439A60AD
:103C40007B681B689A687B681B6822F480629A60B4
:103C50007B681B6899687B685B699A027B681B6854
:103C60000A439A6000BF1437BD465DF8047B704775
:103C7000002301400100000F80B485B000AF7860E0
:103C80007B6803F00703FB600C4BDB68BB60BA6822
:103C90004FF6FF031340BB60FB681A02BB68134377
:103CA00043F0BF6343F40033BB60044ABB68D36096
:103CB00000BF1437BD465DF8047B704700ED00E09F
:103CC00080B400AF044BDB681B0A03F007031846FF
:103CD000BD465DF8047B704700ED00E080B483B022
:103CE00000AF03463960FB7197F90730002B0ADB00
:103CF0003B68DAB20C4997F907301201D2B20B4493
:103D000083F800230AE03B68DAB20849FB7903F044
:103D10000F03043B1201D2B20B441A7600BF0C37DA
:103D2000BD465DF8047B704700E100E000ED00E077
:103D300080B489B000AFF860B9607A60FB6803F0C6
:103D40000703FB61FB69C3F10703042B28BF0423AE
:103D5000BB61FB690433062B02D9FB69033B00E01E
:103D600000237B614FF0FF32BB6902FA03F3DA43B1
:103D7000BB681A407B699A404FF0FF317B6901FABA
:103D800003F3D9437B680B40134318462437BD46E1
:103D90005DF8047B7047000080B582B000AF7860AA
:103DA0007B68013BB3F1807F01D301230FE00A4A16
:103DB0007B68013B53600F214FF0FF30FFF78EFF10
:103DC000054B00229A60044B07221A600023184614
:103DD0000837BD4680BD00BF10E000E080B582B06E
:103DE00000AF78607868FFF747FF00BF0837BD462F
:103DF00080BD80B586B000AF0346B9607A60FB73C2
:103E000000237B61FFF75CFF78617A68B9687869A5
:103E1000FFF78EFF024697F90F3011461846FFF75D
:103E20005DFF00BF1837BD4680BD80B582B000AFD2
:103E300078607868FFF7B0FF034618460837BD463C
:103E400080BD80B582B000AF78607B68002B01D167
:103E5000012314E07B681B79DBB2002B05D17B6862
:103E600000225A717868FEF7FDFD7B6802221A7104
:103E70007B6800221A617B6801221A7100231846B0
:103E80000837BD4680BD80B485B000AF786039602A
:103E90000023FB600023BB607B685B79012B01D1B1
:103EA000022350E07B6801225A717B6802221A715A
:103EB0007B681B68196801223B689A407B681B6815
:103EC0000A431A603B68002B1AD17B681B681B6889
:103ED00003F00403FB607B681B681B6803F0380376
:103EE000BB60FB68042B27D1BB68382B24D17B68CF
:103EF0001B685A687B681B6842F001025A601BE02D
:103F00007B681B681B6803F48023FB607B681B686D
:103F10001B6803F46013BB60FB68B3F5802F0BD103
:103F2000BB68B3F5601F07D17B681B685A687B6864
:103F30001B6842F002025A607B6801221A717B689A
:103F400000225A71002318461437BD465DF8047BE1
:103F5000704780B487B000AFF860B9607A60002322
:103F60007B6100233B61FB685B79012B01D102235C
:103F700036E0FB6801225A71FB6802221A71FB6865
:103F80001B681B687B6140F6FE727B6802FA03F3D4
:103F9000DB437A6913407B61BB681A68BB685B6866
:103FA00013433B613A697B6802FA03F37A6913436E
:103FB0007B61FB681B687A691A60FB681B6819687B
:103FC000C0227B6802FA03F3DA43FB681B680A40ED
:103FD0001A60FB6801221A71FB6800225A710023E3
:103FE00018461C37BD465DF8047B704780B487B027
:103FF00000AFF860B9607A603B6000237B61FB68CA
:104000001B687B61BB68002B05D17A697B68134410
:1040100008337B6104E07A697B68134414337B6165
:104020007B691A463B681360002318461C37BD465F
:104030005DF8047B7047000080B489B000AF786001
:10404000396000237B6100233B610023BB610023B7
:10405000FB6177E10122FB6902FA03F37B613B68B4
:104060001B687A6913403B613A697B699A4240F068
:1040700066813B685B68012B0BD03B685B68022B59
:1040800007D03B685B68112B03D03B685B68122B41
:1040900030D17B689B68BB61FB695B00032202FA3D
:1040A00003F3DB43BA691340BB613B68DA68FB6921
:1040B0005B0002FA03F3BA691343BB617B68BA6918
:1040C0009A607B685B68BB610122FB6902FA03F3BB
:1040D000DB43BA691340BB613B685B681B0903F0B3
:1040E0000102FB6902FA03F3BA691343BB617B68FF
:1040F000BA695A607B68DB68BB61FB695B000322BD
:1041000002FA03F3DB43BA691340BB613B689A6868
:10411000FB695B0002FA03F3BA691343BB617B6876
:10412000BA69DA603B685B68022B03D03B685B6866
:10413000122B23D1FB69DA087B68083253F822304E
:10414000BB61FB6903F007039B000F2202FA03F334
:10415000DB43BA691340BB613B681A69FB6903F032
:1041600007039B0002FA03F3BA691343BB61FB69BF
:10417000DA087B680832B96943F822107B681B684B
:10418000BB61FB695B00032202FA03F3DB43BA69FC
:104190001340BB613B685B6803F00302FB695B0093
:1041A00002FA03F3BA691343BB617B68BA691A6008
:1041B0003B685B6803F08053002B00F0C080002355
:1041C000FB60654B5B6C644A43F480435364624B11
:1041D0005B6C03F48043FB60FB68604AFB699B08EF
:1041E000023352F82330BB61FB6903F003039B00E9
:1041F0000F2202FA03F3DB43BA691340BB617B6809
:10420000574A934237D07B68564A934231D07B68F5
:10421000554A93422BD07B68544A934225D07B6801
:10422000534A93421FD07B68524A934219D07B680D
:10423000514A934213D07B68504A93420DD07B6819
:104240004F4A934207D07B684E4A934201D10923DB
:1042500012E00A2310E008230EE007230CE00623F7
:104260000AE0052308E0042306E0032304E0022318
:1042700002E0012300E00023FA6902F00302920049
:104280009340BA691343BB613449FB699B0802330D
:10429000BA6941F823203C4B1B68BB613B69DB4397
:1042A000BA691340BB613B685B6803F48033002B41
:1042B00003D0BA693B691343BB61334ABB691360DE
:1042C000314B5B68BB613B69DB43BA691340BB613F
:1042D0003B685B6803F40033002B03D0BA693B6989
:1042E0001343BB61284ABB695360274B9B68BB6182
:1042F0003B69DB43BA691340BB613B685B6803F40D
:104300008013002B03D0BA693B691343BB611E4A7B
:10431000BB6993601C4BDB68BB613B69DB43BA69DB
:104320001340BB613B685B6803F40013002B03D0B0
:10433000BA693B691343BB61134ABB69D360FB692C
:104340000133FB61FB690F2B7FF684AE00BF24377E
:10435000BD465DF8047B70470038024000380140DC
:10436000000002400004024000080240000C02402D
:10437000001002400014024000180240001C0240DD
:104380000020024000240240003C014080B485B07F
:1043900000AF78600B467B807B681A697B8813408E
:1043A000002B02D00123FB7301E00023FB73FB7B96
:1043B00018461437BD465DF8047B704780B483B05F
:1043C00000AF78600B467B8013467B707B78002BB8
:1043D00003D07A887B689A6103E07B881A047B6843
:1043E0009A6100BF0C37BD465DF8047B7047000042
:1043F00080B584B000AF78607B68002B01D10123C9
:104400001FE17B6893F83D30DBB2002B06D17B685F
:10441000002283F83C207868FEF768FB7B68242242
:1044200083F83D207B681B681A687B681B6822F054
:1044300001021A607B681B681A687B681B6842F47B
:1044400000421A607B681B681A687B681B6822F44C
:1044500000421A6001F00CFBF8607B685B687B4AE5
:10446000934207D8FB687A4A934294BF0123002302
:10447000DBB206E0FB68774A934294BF0123002336
:10448000DBB2002B01D00123DBE0FB68724AA2FB08
:1044900003239B0CBB607B681B685B6823F03F01B8
:1044A0007B681B68BA680A435A607B681B681B6A92
:1044B00023F03F017B685B68644A934202D8BB6883
:1044C000013309E0BB684FF4967202FB03F3634AC1
:1044D000A2FB03239B0901337A6812680B43136222
:1044E0007B681B68DB6923F44F4222F0FF027B6884
:1044F0005B6856498B420DD8FB68591E7B685B6828
:104500005B00B1FBF3F30133C3F30B03042B38BFA0
:1045100004234FE07B689B68002B11D1FB68581E79
:104520007B6859680B465B000B44B0FBF3F3013327
:10453000C3F30B03002B0CBF01230023DBB212E0FB
:10454000FB68581E7B6859680B469B000B4499001A
:104550000B44B0FBF3F30133C3F30B03002B0CBF8D
:1045600001230023DBB2002B01D0012322E07B6872
:104570009B68002B0ED1FB68581E7B6859680B4660
:104580005B000B44B0FBF3F30133C3F30B0343F4C1
:1045900000430FE0FB68581E7B6859680B469B0080
:1045A0000B4499000B44B0FBF3F30133C3F30B034B
:1045B00043F44043796809681343CB617B681B6807
:1045C0001B6823F0C0017B68DA697B681B6A1A43A9
:1045D0007B681B680A431A607B681B689B6823F42E
:1045E000034323F0FF037A6811697A68D2681143A4
:1045F0007A6812680B4393607B681B68DB6823F062
:10460000FF017B685A697B689B691A437B681B685A
:104610000A43DA607B681B681A687B681B6842F093
:1046200001021A607B6800221A647B68202283F8EA
:104630003D207B6800221A637B68002283F83E20BD
:10464000002318461037BD4680BD00BFA08601007C
:104650007F841E00FF083D0083DE1B43D34D6210A4
:1046600080B588B002AFF8607A601A460B467B814D
:1046700013463B81FEF708FF7861FB6893F83D30F5
:10468000DBB2202B40F0E0807B69009319230122EC
:104690007049F86800F092FA0346002B01D002231B
:1046A000D3E0FB6893F83C30012B01D10223CCE02E
:1046B000FB68012283F83C20FB681B681B6803F041
:1046C0000103012B07D0FB681B681A68FB681B6895
:1046D00042F001021A60FB681B681A68FB681B68DD
:1046E00022F400621A60FB68212283F83D20FB68F7
:1046F000102283F83E20FB6800221A64FB687A6867
:104700005A62FB683A895A85FB685B8D9AB2FB68EE
:104710001A85FB68504ADA6279897B693A6AF868D7
:1047200000F0CAF90346002B01D001238DE00023DD
:104730003B61FB681B685B693B61FB681B689B69AD
:104740003B613B6966E07A69396AF86800F00CFB06
:104750000346002B0DD0FB681B6C042B07D1FB68B4
:104760001B681A68FB681B6842F400721A60012318
:104770006BE0FB685B6A1A78FB681B681A61FB6870
:104780005B6A5A1CFB685A62FB685B8D9BB2013BFB
:104790009AB2FB685A85FB681B8D013B9AB2FB6895
:1047A0001A85FB681B685B6903F00403042B1BD1AB
:1047B000FB681B8D002B17D0FB685B6A1A78FB68BF
:1047C0001B681A61FB685B6A5A1CFB685A62FB68CB
:1047D0005B8D9BB2013B9AB2FB685A85FB681B8DCF
:1047E000013B9AB2FB681A857A69396AF86800F069
:1047F000FCFA0346002B0DD0FB681B6C042B07D181
:10480000FB681B681A68FB681B6842F400721A6038
:1048100001231AE0FB681B8D002B94D1FB681B68F9
:104820001A68FB681B6842F400721A60FB68202259
:1048300083F83D20FB68002283F83E20FB680022BD
:1048400083F83C20002300E0022318461837BD46B9
:1048500080BD00BF020010000000FFFF80B58AB0DD
:1048600002AFF8607A603B600B467B81FEF70CFE7E
:10487000F8610123BB61FB6893F83D30DBB2202B6C
:1048800040F01181FB690093192301228849F868DF
:1048900000F094F90346002B01D0022304E1FB68E9
:1048A00093F83C30012B01D10223FDE0FB6801228B
:1048B00083F83C20FB681B681B6803F00103012B95
:1048C00007D0FB681B681A68FB681B6842F001028E
:1048D0001A60FB681B681A68FB681B6822F4006298
:1048E0001A60FB68242283F83D20FB6800221A64CA
:1048F000FB68704ADA62FB681B681A68FB681B6811
:1049000042F480721A60FB6900933B6800224FF00A
:104910000111F86800F052F90346002B0DD0FB6836
:104920001B681B6803F48073B3F5807F03D1FB68B9
:104930004FF400721A640323B6E07B89DBB21A4697
:10494000FB681B6802F0FE021A61FEF79DFDF8612C
:10495000FB681B685B6903F00203022B0CBF012399
:104960000023DBB2FB75FB681B685B6903F48063A3
:10497000B3F5806F0CBF01230023DBB2BB7525E0CC
:10498000FEF782FD0246FB69D31A3A689A4202D3C7
:104990003B68002B03D1FB68A02283F83D20FB6815
:1049A0001B685B6903F00203022B0CBF0123002389
:1049B000DBB2FB75FB681B685B6903F48063B3F5CE
:1049C000806F0CBF01230023DBB2BB75FB6893F83B
:1049D0003D30DBB2A02B05D0FB7D002B02D1BB7D8F
:1049E000002BCDD0FB68202283F83D20FB681B689C
:1049F0005B6903F00203022B29D1FB681B681A686C
:104A0000FB681B6842F400721A6000233B61FB687C
:104A10001B685B693B61FB681B689B693B613B6989
:104A2000FB690093192301222149F86800F0C6F8B8
:104A30000346002B01D0012336E0FB68202283F8D7
:104A40003D20FB68002283F83C2000232CE0FB681B
:104A50001B681A68FB681B6842F400721A60FB68E6
:104A60001B686FF480625A61FB690093192301226D
:104A70000F49F86800F0A2F80346002B01D001238B
:104A800012E0BB690133BB61BA697B689A42FFF4EB
:104A900032AFFB68202283F83D20FB68002283F8B8
:104AA0003C20012300E0022318462037BD4680BD8C
:104AB000020010000000FFFF80B588B002AFF86070
:104AC0007A603B600B467B81FB68DB6A7B617B69BC
:104AD000082B06D07B69012B03D07B6913F5803F3F
:104AE00008D1FB681B681A68FB681B6842F4807277
:104AF0001A600BE0FB681B6B122B07D1FB681B686D
:104B00001A68FB681B6842F480721A603B68009365
:104B10007B6800224FF00111F86800F04FF803465F
:104B2000002B0DD0FB681B681B6803F48073B3F582
:104B3000807F03D1FB684FF400721A64032335E0D1
:104B4000FB681B69B3F5804F08D17B89DBB21A463D
:104B5000FB681B6802F0FE021A611BE07B89DB1117
:104B6000DBB203F00603DBB263F00F03DAB2FB68DB
:104B70001B681A613B687A680E49F86800F075F89E
:104B80000346002B01D0012310E07B89DAB2FB68D9
:104B90001B681A613B687A680749F86800F065F895
:104BA0000346002B01D0012300E0002318461837EC
:104BB000BD4680BD080001000200010080B584B040
:104BC00000AFF860B9603B601346FB7125E03B68BD
:104BD000B3F1FF3F21D0FEF757FC0246BB69D31A61
:104BE0003A689A4202D33B68002B16D1FB68002238
:104BF0001A63FB68202283F83D20FB68002283F8BB
:104C00003E20FB681B6C43F02002FB681A64FB68C3
:104C1000002283F83C20012323E0BB681B0CDBB29D
:104C2000012B0DD1FB681B685B69DA43BB6813403D
:104C30009BB2002B0CBF01230023DBB21A460CE011
:104C4000FB681B689B69DA43BB6813409BB2002B6F
:104C50000CBF01230023DBB21A46FB799A42B6D07F
:104C6000002318461037BD4680BD80B584B000AF24
:104C7000F860B9607A603B6051E0FB681B685B6973
:104C800003F48063B3F5806F23D1FB681B681A6857
:104C9000FB681B6842F400721A60FB681B686FF4C3
:104CA00080625A61FB6800221A63FB68202283F845
:104CB0003D20FB68002283F83E20FB681B6C43F01C
:104CC0000402FB681A64FB68002283F83C2001237D
:104CD00046E07B68B3F1FF3F21D0FEF7D5FB0246EB
:104CE0003B68D31A7A689A4202D37B68002B16D1AC
:104CF000FB6800221A63FB68202283F83D20FB68D2
:104D0000002283F83E20FB681B6C43F02002FB6806
:104D10001A64FB68002283F83C20012320E0BB6872
:104D20001B0CDBB2012B0CD1FB681B685B69DA43FF
:104D3000BB6813409BB2002B14BF01230023DBB2DE
:104D40000BE0FB681B689B69DA43BB6813409BB2AE
:104D5000002B14BF01230023DBB2002B8DD10023D5
:104D600018461037BD4680BD80B584B000AFF860EE
:104D7000B9607A602DE0F86800F078F80346002BFF
:104D800001D001232DE0BB68B3F1FF3F21D0FEF736
:104D90007BFB02467B68D31ABA689A4202D3BB688F
:104DA000002B16D1FB6800221A63FB68202283F8CF
:104DB0003D20FB68002283F83E20FB681B6C43F01B
:104DC0002002FB681A64FB68002283F83C20012360
:104DD00007E0FB681B685B6903F08003802BCAD186
:104DE000002318461037BD4680BD80B584B000AFA3
:104DF000F860B9607A602DE0F86800F037F8034693
:104E0000002B01D001232DE0BB68B3F1FF3F21D07F
:104E1000FEF73AFB02467B68D31ABA689A4202D37D
:104E2000BB68002B16D1FB6800221A63FB682022A6
:104E300083F83D20FB68002283F83E20FB681B6C52
:104E400043F02002FB681A64FB68002283F83C20D0
:104E5000012307E0FB681B685B6903F00403042B74
:104E6000CAD1002318461037BD4680BD80B483B038
:104E700000AF78607B681B685B6903F48063B3F5FF
:104E8000806F1BD17B681B686FF480625A617B68FE
:104E900000221A637B68202283F83D207B68002271
:104EA00083F83E207B681B6C43F004027B681A6425
:104EB0007B68002283F83C20012300E00023184691
:104EC0000C37BD465DF8047B704780B483B000AFFB
:104ED000786039607B6893F83D30DBB2202B29D1B4
:104EE0007B68242283F83D207B681B681A687B68F6
:104EF0001B6822F001021A607B681B685A6A7B6893
:104F00001B6822F010025A627B681B68596A7B6832
:104F10001B683A680A435A627B681B681A687B6898
:104F20001B6842F001021A607B68202283F83D2052
:104F3000002300E0022318460C37BD465DF8047BD1
:104F4000704780B485B000AF786039600023FB8182
:104F50007B6893F83D30DBB2202B2AD17B6824227A
:104F600083F83D207B681B681A687B681B6822F009
:104F700001021A607B681B685B6AFB81FB8923F076
:104F80000F03FB813B689AB2FB891343FB817B686B
:104F90001B68FA895A627B681B681A687B681B6801
:104FA00042F001021A607B68202283F83D20002332
:104FB00000E0022318461437BD465DF8047B7047B5
:104FC000F0B58FB00AAF78607B68002B01D1012368
:104FD0000FE17B681B68BB607B6893F8BD33DBB275
:104FE000002B06D17B68002283F8BC237868FDF78C
:104FF00063FE7B68032283F8BD23BB68DB6B03F48D
:105000008073002B02D17B6800221A617B681B68C9
:10501000184601F080F97B681B683B607E686D462E
:1050200006F110040FCC0FC50FCC0FC594E8030098
:1050300085E80300331D0ECB386801F00BF90346F9
:10504000002B05D07B68022283F8BD230123D0E02A
:105050007B681B680021184601F06EF90023FB7382
:105060004AE0FA7B79681346DB009B1A9B000B44ED
:105070003D3301221A70FA7B79681346DB009B1AD4
:105080009B000B443C33FA7B1A70FA7BFB7B98B293
:1050900079681346DB009B1A9B000B44423302469F
:1050A0001A80FA7B79681346DB009B1A9B000B443D
:1050B0003F3300221A70FA7B79681346DB009B1A93
:1050C0009B000B44443300221A60FA7B7968134634
:1050D000DB009B1A9B000B44483300221A60FA7BCA
:1050E00079681346DB009B1A9B000B445033002267
:1050F0001A60FB7B0133FB73FA7B7B685B689A4227
:10510000AFD30023FB7344E0FA7B79681346DB00DE
:105110009B1A9B000B4403F2FD1300221A70FA7BCA
:1051200079681346DB009B1A9B000B4403F5FE7362
:10513000FA7B1A70FA7B79681346DB009B1A9B0096
:105140000B4403F2FF1300221A70FA7B79681346AE
:10515000DB009B1A9B000B4403F5017300221A60CD
:10516000FA7B79681346DB009B1A9B000B4403F51E
:10517000027300221A60FA7B79681346DB009B1ADF
:105180009B000B4403F5047300221A60FB7B013380
:10519000FB73FA7B7B685B689A42B5D37B681B68BC
:1051A0003B607E686D4606F110040FCC0FC50FCC36
:1051B0000FC594E8030085E80300331D0ECB386863
:1051C00001F0E4F80346002B05D07B68022283F847
:1051D000BD2301230DE07B68002283F838207B6823
:1051E000012283F8BD237B681B68184601F093FAFF
:1051F000002318461437BD46F0BD000080B586B0C8
:1052000000AF78607B68002B01D101235BE27B68F3
:105210001B6803F00103002B75D0A34B9B6803F0C0
:105220000C03042B0CD0A04B9B6803F00C03082B41
:1052300012D19D4B5B6803F48003B3F5800F0BD153
:10524000994B1B6803F40033002B5BD07B685B68D1
:10525000002B57D1012336E27B685B68B3F5803FB2
:1052600006D1914B1B68904A43F4803313601DE0D4
:105270007B685B68B3F5A02F0CD18B4B1B688A4A07
:1052800043F480231360884B1B68874A43F48033C0
:1052900013600BE0844B1B68834A23F48033136054
:1052A000814B1B68804A23F4802313607B685B6812
:1052B000002B13D0FEF7E8F8386108E0FEF7E4F8B9
:1052C00002463B69D31A642B01D90323FBE1764BD9
:1052D0001B6803F40033002BF0D014E0FEF7D4F881
:1052E000386108E0FEF7D0F802463B69D31A642B18
:1052F00001D90323E7E16C4B1B6803F40033002B57
:10530000F0D100E000BF7B681B6803F00203002BB4
:1053100063D0654B9B6803F00C03002B0BD0624BF2
:105320009B6803F00C03082B1CD15F4B5B6803F4F4
:105330008003002B16D15C4B1B6803F00203002B8B
:1053400005D07B68DB68012B01D00123BBE1564B04
:105350001B6823F0F8027B681B69DB00524913438A
:105360000B603AE07B68DB68002B20D04F4B0122BA
:105370001A60FEF789F8386108E0FEF785F8024602
:105380003B69D31A022B01D903239CE1464B1B68CE
:1053900003F00203002BF0D0434B1B6823F0F8020C
:1053A0007B681B69DB00404913430B6015E03F4BF2
:1053B00000221A60FEF768F8386108E0FEF764F82A
:1053C00002463B69D31A022B01D903237BE1364BFA
:1053D0001B6803F00203002BF0D17B681B6803F00D
:1053E0000803002B30D07B685B69002B16D0304B54
:1053F00001221A60FEF748F8386108E0FEF744F829
:1054000002463B69D31A022B01D903235BE1264BE9
:105410005B6F03F00203002BF0D015E0244B002259
:105420001A60FEF731F8386108E0FEF72DF8024601
:105430003B69D31A022B01D9032344E11A4B5B6F5A
:1054400003F00203002BF0D17B681B6803F0040318
:10545000002B00F0A0800023FB75134B1B6C03F0A6
:105460008053002B0FD10023BB600F4B1B6C0E4AE7
:1054700043F0805313640C4B1B6C03F08053BB60F0
:10548000BB680123FB750B4B1B6803F48073002B77
:1054900021D1084B1B68074A43F480731360FDF762
:1054A000F3FF386111E000BF0038024000004742BE
:1054B000800E474200700040FDF7E6FF02463B6960
:1054C000D31A022B01D90323FDE0814B1B6803F49F
:1054D0008073002BF0D07B689B68012B06D17D4B3D
:1054E0001B6F7C4A43F0010313671CE07B689B68D9
:1054F000052B0CD1774B1B6F764A43F004031367DF
:10550000744B1B6F734A43F0010313670BE0714B3D
:105510001B6F704A23F0010313676E4B1B6F6D4ABC
:1055200023F0040313677B689B68002B15D0FDF7FD
:10553000ABFF38610AE0FDF7A7FF02463B69D31ACB
:1055400041F28832934201D90323BCE0614B1B6FC7
:1055500003F00203002BEED014E0FDF795FF386155
:105560000AE0FDF791FF02463B69D31A41F2883207
:10557000934201D90323A6E0564B1B6F03F00203AD
:10558000002BEED1FB7D012B05D1524B1B6C514AF8
:1055900023F0805313647B689B69002B00F092809A
:1055A0004C4B9B6803F00C03082B5CD07B689B6919
:1055B000022B41D1484B00221A60FDF765FF38618C
:1055C00008E0FDF761FF02463B69D31A022B01D9BF
:1055D000032378E03F4B1B6803F00073002BF0D1EE
:1055E0007B68DA697B681B6A1A437B685B6A9B018C
:1055F0001A437B689B6A5B08013B1B041A437B6868
:10560000DB6A1B06334913434B60334B01221A609C
:10561000FDF73AFF386108E0FDF736FF02463B69C7
:10562000D31A022B01D903234DE02A4B1B6803F048
:105630000073002BF0D045E0274B00221A60FDF7E5
:1056400023FF386108E0FDF71FFF02463B69D31ACC
:10565000022B01D9032336E01E4B1B6803F00073B5
:10566000002BF0D12EE07B689B69012B01D1012337
:1056700029E0184B5B68FB60FB6803F480027B68E1
:10568000DB699A421CD1FB6803F03F027B681B6A0E
:105690009A4215D1FA6847F6C07313407A68526A85
:1056A00093420DD1FB6803F440327B689B6A9A42B7
:1056B00006D1FB6803F070627B68DB6A9A4201D016
:1056C000012300E0002318461837BD4680BD00BF07
:1056D00000700040003802406000474280B584B04E
:1056E00000AF786039607B68002B01D10123CCE0EA
:1056F000684B1B6803F00F033A689A420CD9654B5C
:105700003A68D2B21A70634B1B6803F00F033A6811
:105710009A4201D00123B8E07B681B6803F00203C2
:10572000002B20D07B681B6803F00403002B05D0FE
:10573000594B9B68584A43F4E05393607B681B685D
:1057400003F00803002B05D0534B9B68524A43F4E7
:1057500060439360504B9B6823F0F0027B689B682A
:105760004D4913438B607B681B6803F00103002BDA
:1057700044D07B685B68012B07D1474B1B6803F45F
:105780000033002B19D101237FE07B685B68022B7B
:1057900003D07B685B68032B07D13F4B1B6803F08A
:1057A0000073002B09D101236FE03B4B1B6803F012
:1057B0000203002B01D1012367E0374B9B6823F0E4
:1057C00003027B685B68344913438B60FDF75CFE22
:1057D000F8600AE0FDF758FE0246FB68D31A41F272
:1057E0008832934201D903234FE02B4B9B6803F08F
:1057F0000C027B685B689B009A42EBD1254B1B68CF
:1058000003F00F033A689A420CD2224B3A68D2B2A4
:105810001A70204B1B6803F00F033A689A4201D0BC
:10582000012332E07B681B6803F00403002B08D0DF
:10583000194B9B6823F4E0527B68DB6816491343DD
:105840008B607B681B6803F00803002B09D0124BA8
:105850009B6823F460427B681B69DB000E4913439D
:105860008B6000F021F801460B4B9B681B0903F08D
:105870000F030A4AD35C21FA03F3094A1360094B68
:105880001B681846FDF7BCFD002318461037BD46BF
:1058900080BD00BF003C02400038024098CE0008A6
:1058A000E400002048010020F0B585B000AF0023DF
:1058B0007B600023FB6000233B600023BB60634BE5
:1058C0009B6803F00C03042B07D0082B08D0002B97
:1058D00040F0B4805E4BBB60B3E05E4BBB60B0E0B9
:1058E0005A4B5B6803F03F037B60584B5B6803F4E3
:1058F0008003002B4AD0554B5B689B094FF0000496
:1059000040F2FF114FF0000203EA010504EA02062B
:10591000294632464FF000034FF00004540144EA98
:10592000D1644B0119462246491B62EB06024FF037
:1059300000034FF00004940144EA91648B015B1A68
:1059400064EB02044FF000014FF00002E20042EA73
:105950005372D9000B4614465B1944EB06044FF012
:1059600000014FF00002620242EAD35259020B4694
:105970001446184621467B684FF000041A46234619
:10598000FBF792F903460C46FB6049E02F4B5B683E
:105990009B094FF0000440F2FF114FF0000203EAB0
:1059A000010504EA0206294632464FF000034FF093
:1059B0000004540144EAD1644B0119462246491BB4
:1059C00062EB06024FF000034FF00004940144EA3A
:1059D00091648B015B1A64EB02044FF000014FF0FD
:1059E0000002E20042EA5372D9000B4614465B19EA
:1059F00044EB06044FF000014FF00002A20242EA1D
:105A0000935299020B461446184621467B684FF084
:105A100000041A462346FBF747F903460C46FB6091
:105A20000A4B5B681B0C03F0030301335B003B6014
:105A3000FA683B68B2FBF3F3BB6002E0044BBB6067
:105A400000BFBB6818461437BD46F0BD00380240A1
:105A50000024F40000127A0080B400AF034B1B68EE
:105A60001846BD465DF8047B704700BFE400002087
:105A700080B500AFFFF7F0FF0146054B9B689B0A1E
:105A800003F00703034AD35C21FA03F3184680BDF1
:105A900000380240A8CE000880B500AFFFF7DCFF59
:105AA0000146054B9B685B0B03F00703034AD35C7D
:105AB00021FA03F3184680BD00380240A8CE000842
:105AC00080B582B000AF78607B68002B01D10123E4
:105AD0003FE07B6893F83930DBB2002B06D17B685E
